:100000000C9464000C94FD010C94E5030C948100A5
:100010000C9481000C9481000C9481000C94630377
:100020000C9481000C9481000C9481000C9481004C
:100030000C9481000C9481000C9481000C9481003C
:100040000C9481000C9481000C9481000C9481002C
:100050000C9481001201100100000008C016DD059B
:1000600000010102000114034400610074006100FA
:10007000530074006F00720065001203620062009A
:100080006400650076002E0061007400040309041A
:100090000600FF0901A1010901150026FF007508EE
:1000A0009501B20201C009022200010100E0EE093F
:1000B00004000001030000000921010100012216D3
:1000C000000705810304002011241FBECFE5D8E0FE
:1000D000DEBFCDBF10E0A0E6B0E0ECEDF8E002C07E
:1000E00005900D92AA36B107D9F720E0AAE6B0E054
:1000F00001C01D92A53AB207E1F70E94F7030C94E4
:100100006C040C940000CF93C62F20917A0024FF3A
:1001100007C020917B0038E8232720937B0003C091
:100120002AE520937A00DC01ECE7F0E09C2F9E0F9B
:100130008D918193892F8E1B1816D4F36C2F8CE729
:1001400090E00E94F901CC5FC0937A00CF910895AE
:10015000CF93DF9360918B00635067FDC0C08091A7
:100160008800CCE0D0E0C81BD109C157DF4F809197
:1001700087008D3209F0A1C0683009F0AEC083EC71
:1001800080936F008AE58093600010926A008881F6
:10019000807639F0CE010E94D3038F3F09F47CC0F2
:1001A00082C09A81109278008981811106C01092D4
:1001B000790028E730E082E06AC0853019F4909336
:1001C0008C0062C0863009F049C08B81813019F4FF
:1001D00084E590E01AC0823041F486EA90E0909382
:1001E0008A008093890082E235C08330F1F4911156
:1001F00008C08CE890E090938A008093890084E0A6
:1002000029C0913041F48AE790E090938A0080936E
:10021000890082E11FC09230E1F486E690E090937D
:100220008A008093890084E115C0813241F488EB13
:1002300090E090938A008093890089E00BC082321D
:1002400041F480E990E090938A008093890086E1F0
:1002500001C080E090E490936A0025C0883069F086
:10026000893019F490938E000FC08A3049F08B309A
:1002700059F48BE480937B0007C02EE830E002C085
:1002800028E730E081E003C028E730E080E03093E9
:100290008A002093890007C0988197FD8E8190E89D
:1002A00090936A0007C09F81911104C09E819817A6
:1002B00008F4892F8093610010C080916A0087FF45
:1002C0000CC0CE010E947E038F3F21F48EE180930B
:1002D000600003C081111092610010928B00809128
:1002E000600084FF57C0809161008F3F09F452C0C5
:1002F000C82F893008F0C8E08C1B80936100809182
:100300006F0098E8892780936F00CC2389F1809152
:100310006A0087FF07C06C2F80E790E00E944603C9
:10032000C82F24C02091890030918A0086FF0BC01D
:10033000F901A0E7B0E08C2F8A0F94919D9331963C
:100340008A13FBCF09C0D901E0E7F0E08C2F8E0FB4
:100350009D9191938E13FCCF2F5F3F4F8C2F815037
:10036000280F311D30938A0020938900C93060F432
:100370006C2F80E790E00E94F901CC5FCC3041F017
:100380008FEF8093610004C08FEF80936100CEE116
:10039000C093600084E190B3947131F48150D9F737
:1003A00010928C0010928600DF91CF91089585B74E
:1003B000826085BF8BB780648BBF8BE480937B00AA
:1003C0008AE580937A000895A82FB92F80E090E005
:1003D00041E050EA609530E009C02D918227979561
:1003E000879510F084279527305EC8F36F5FA8F3D8
:1003F0000895EADF8D939D930895CF93CFB7CF9360
:10040000C395849BE9F7849B09C0849B07C0849BA8
:1004100005C0849B03C0849B01C0A3C0DF93C0912F
:100420008800DD27C157DF4F849B02C0DF91EBCFEF
:100430002F930F931F9300B32FEF04FB20F94F93DB
:100440003F9310B34FEF012704FB21F93BE031C08C
:100450004E7F012F10B3216028C0102F4D7F2260E6
:10046000000000B329C04B7F2460012F000010B3AF
:100470002BC010B3477F28602AC04F7E00B3206195
:100480002CC04F7D10B320622FC04F7B00B320647F
:1004900032C0422700B349934FEF0000102714FBEE
:1004A00020F910B31471C9F1297F91F2012704FBDF
:1004B00021F900B3237F89F2315058F1102714FB42
:1004C00022F910B3277E79F2012704FB23F92F7C50
:1004D00081F200B3102714FB24F92F7971F200C0C8
:1004E00010B3012704FB25F92F7359F200C000B3A4
:1004F000102714FB26F9223040F200C010B3012768
:1005000004FB27F9243028F64F77206810B3000049
:10051000F9CF10E41ABF002719C03B503195C31B17
:10052000D04010E41ABF0881033CF9F00B34E9F025
:10053000209186001981110F1213EDCF4A81441FBB
:10054000093641F10D3211F0013E29F700938D007B
:100550003F914F911F910F912F91DF91CAB7C6FD27
:100560004FCFCF91CFBFCF91189520918D002223EF
:1005700079F310918B00112369F534306AF13093CF
:100580008B0020938700109188003BE0311B309353
:10059000880022C000918B000130E4F40AE54F701E
:1005A00049F43091600034FD19C000936000CFE63B
:1005B000D0E018C030917A0034FD10C000937A006A
:1005C000CBE7D0E00FC02795A8F45150A9F4220F33
:1005D0000000F9CF4AE503C042ED01C0432FC4E15A
:1005E000D0E032E011B31461949A11BB02B320E45D
:1005F00014E15F93012756E002BB279520F4515088
:1006000021F4220FF9CF012756E000003B5A02BB2C
:10061000D0F2279528F4515029F4220F0000F9CF89
:10062000012756E0279502BB20F4515021F4220FF8
:10063000F9CF012756E02991332302BB21F60B7E27
:1006400010918C00110FC651D04002BB11F01093D5
:10065000860010E41ABF006111B31B7E402F4B7E51
:100660005F9100C000C002BB11BB42BB71CF9BB306
:10067000982B9BBB80936B001FBC85E08EBD1DBC7F
:100680001CBC7BBD6ABD80E189BF089520916C00D0
:10069000233051F0C99B02C0213041F4DA9A21E0A5
:1006A00020936C0021E303C022E301C020E3FC019E
:1006B00001C021939E2F981B9613FBCF10926D00C3
:1006C000862F089508951F920F920FB60F9211244E
:1006D0008F939F939BB380916B00809589238BBBF5
:1006E00010926B001FBC1EBC1DBC1CBC19BE9F9190
:1006F0008F910F900FBE0F901F9018950F931F931F
:10070000CF93DF93CDB7DEB728970FB6F894DEBF4F
:100710000FBECDBF8C01462F80916C008330B9F1A4
:10072000813051F450E060E070E0C8010E9455044F
:1007300010926C00DA982BC088E0E2E6F0E0DE016F
:10074000119601900D928A95E1F748E050E060E043
:1007500070E0CE0101960E944504DE011196F80179
:10076000CE01099621E03D91332331F041914313AD
:1007700020E0A817B907B9F7211104C083E08093DE
:100780006C0005C06CE87BE581E00E94370381E0E6
:1007900028960FB6F894DEBF0FBECDBFDF91CF9184
:1007A0001F910F910895FC0120812076203259F489
:1007B0008181813009F402C0893029F480E8809376
:1007C0006D0010926E008FEF08951F920F920FB67A
:1007D0000F9211248F9380B3837019F081E080937E
:1007E0006C008F910F900FBE0F901F901895CF93B4
:1007F000DF93CDB7DEB728970FB6F894DEBF0FBEF4
:10080000CDBF8DEF8ABBD198D99A2EE088E190E0D8
:100810000FB6F894A89581BD0FBE21BD10926C0053
:100820001FBC1EBC1DBC1CBC86EC9DE29BBD8ABDD2
:100830000E94D7018C9A88E0E2E6F0E0DE01119692
:1008400001900D928A95E1F748E050E060E070E099
:10085000CE0101960E94550480E007C0A895E7EB01
:10086000FBE03197F1F700C000008150B9F78C9898
:100870008B98939A8BB780688BBF85B7816085BF53
:100880007894A8950E94A800FCCFDC01CB01FC0164
:10089000E199FECF06C0FFBBEEBBE09A31960DB2E8
:1008A0000D9241505040B8F70895DC01CB0103C0D0
:1008B0002D910E94600441505040D0F70895262F9A
:1008C000E199FECF9FBB8EBB2DBB0FB6F894E29A89
:0C08D000E19A0FBE01960895F894FFCF46
:0A08DC005AFF30313233303132332D
:00000001FF
